{
  "contractName": "DogsUpdated",
  "abi": [
    {
      "inputs": [],
      "stateMutability": "nonpayable",
      "type": "constructor"
    },
    {
      "inputs": [],
      "name": "_initialized",
      "outputs": [
        {
          "internalType": "bool",
          "name": "",
          "type": "bool"
        }
      ],
      "stateMutability": "view",
      "type": "function",
      "constant": true
    },
    {
      "inputs": [],
      "name": "getNumberOfDogs",
      "outputs": [
        {
          "internalType": "uint256",
          "name": "",
          "type": "uint256"
        }
      ],
      "stateMutability": "view",
      "type": "function",
      "constant": true
    },
    {
      "inputs": [],
      "name": "owner",
      "outputs": [
        {
          "internalType": "address",
          "name": "",
          "type": "address"
        }
      ],
      "stateMutability": "view",
      "type": "function",
      "constant": true
    },
    {
      "inputs": [
        {
          "internalType": "address",
          "name": "_owner",
          "type": "address"
        }
      ],
      "name": "initialize",
      "outputs": [],
      "stateMutability": "nonpayable",
      "type": "function"
    },
    {
      "inputs": [
        {
          "internalType": "uint256",
          "name": "_dogs",
          "type": "uint256"
        }
      ],
      "name": "setNumberOfDogs",
      "outputs": [],
      "stateMutability": "nonpayable",
      "type": "function"
    }
  ],
  "bytecode": "0x608060405234801561001057600080fd5b5033600560006101000a81548173ffffffffffffffffffffffffffffffffffffffff021916908373ffffffffffffffffffffffffffffffffffffffff1602179055506100613361006660201b60201c565b61018c565b60001515600560149054906101000a900460ff161515146100bc576040517f08c379a00000000000000000000000000000000000000000000000000000000081526004016100b39061015b565b60405180910390fd5b80600560006101000a81548173ffffffffffffffffffffffffffffffffffffffff021916908373ffffffffffffffffffffffffffffffffffffffff1602179055506001600560146101000a81548160ff02191690831515021790555050565b600061012860198361017b565b91507f537461746520616c726561647920696e697469616c697a6564000000000000006000830152602082019050919050565b600060208201905081810360008301526101748161011b565b9050919050565b600082825260208201905092915050565b61058a8061019b6000396000f3fe608060405234801561001057600080fd5b50600436106100575760003560e01c806314861b221461005c5780631680a5ed146100785780633072cf60146100965780638da5cb5b146100b4578063c4d66de8146100d2575b600080fd5b61007660048036038101906100719190610306565b6100ee565b005b6100806101a2565b60405161008d91906104a7565b60405180910390f35b61009e6101c5565b6040516100ab919061044c565b60405180910390f35b6100bc6101d8565b6040516100c99190610431565b60405180910390f35b6100ec60048036038101906100e791906102dd565b6101fe565b005b3373ffffffffffffffffffffffffffffffffffffffff16600560009054906101000a900473ffffffffffffffffffffffffffffffffffffffff1673ffffffffffffffffffffffffffffffffffffffff161461017e576040517f08c379a000000000000000000000000000000000000000000000000000000000815260040161017590610467565b60405180910390fd5b80600060405161018d9061041c565b90815260200160405180910390208190555050565b6000806040516101b19061041c565b908152602001604051809103902054905090565b600560149054906101000a900460ff1681565b600560009054906101000a900473ffffffffffffffffffffffffffffffffffffffff1681565b60001515600560149054906101000a900460ff16151514610254576040517f08c379a000000000000000000000000000000000000000000000000000000000815260040161024b90610487565b60405180910390fd5b80600560006101000a81548173ffffffffffffffffffffffffffffffffffffffff021916908373ffffffffffffffffffffffffffffffffffffffff1602179055506001600560146101000a81548160ff02191690831515021790555050565b6000813590506102c281610526565b92915050565b6000813590506102d78161053d565b92915050565b6000602082840312156102ef57600080fd5b60006102fd848285016102b3565b91505092915050565b60006020828403121561031857600080fd5b6000610326848285016102c8565b91505092915050565b610338816104de565b82525050565b610347816104f0565b82525050565b600061035a6019836104c2565b91507f41636365737369626c6520746f206f776e657273206f6e6c79000000000000006000830152602082019050919050565b600061039a6019836104c2565b91507f537461746520616c726561647920696e697469616c697a6564000000000000006000830152602082019050919050565b60006103da6004836104d3565b91507f446f6773000000000000000000000000000000000000000000000000000000006000830152600482019050919050565b6104168161051c565b82525050565b6000610427826103cd565b9150819050919050565b6000602082019050610446600083018461032f565b92915050565b6000602082019050610461600083018461033e565b92915050565b600060208201905081810360008301526104808161034d565b9050919050565b600060208201905081810360008301526104a08161038d565b9050919050565b60006020820190506104bc600083018461040d565b92915050565b600082825260208201905092915050565b600081905092915050565b60006104e9826104fc565b9050919050565b60008115159050919050565b600073ffffffffffffffffffffffffffffffffffffffff82169050919050565b6000819050919050565b61052f816104de565b811461053a57600080fd5b50565b6105468161051c565b811461055157600080fd5b5056fea264697066735822122011ee811853f9f3887adfcbb01e56f7858fc3a6372f615fabfb908d4fc7a5441964736f6c63430008000033",
  "immutableReferences": {},
  "source": "// SPDX-License-Identifier: MIT\r\npragma solidity >=0.4.22 <0.9.0;\r\nimport './Dogs.sol';\r\n\r\ncontract DogsUpdated is Dogs{\r\n   \r\n   constructor(){\r\n       initialize(msg.sender);\r\n   }\r\n   \r\n   function initialize(address _owner) public{\r\n       require(_initialized == false, 'State already initialized');\r\n       owner  = _owner;\r\n       _initialized = true;\r\n   }\r\n\r\n   function setNumberOfDogs(uint _dogs) public override onlyOwner{\r\n       _uintStorage[\"Dogs\"] = _dogs;\r\n   }\r\n}",
  "sourcePath": "D:/BlockChain/Ethereum-201/ProxyContract/contracts/DogsUpdated.sol",
  "compiler": {
    "name": "solc",
    "version": "0.8.0+commit.c7dfd78e.Emscripten.clang"
  },
  "schemaVersion": "3.4.1",
  "updatedAt": "2021-07-20T17:56:12.583Z",
  "networkType": "ethereum",
  "devdoc": {
    "kind": "dev",
    "methods": {},
    "version": 1
  },
  "userdoc": {
    "kind": "user",
    "methods": {},
    "version": 1
  }
}