{
  "contractName": "Dogs",
  "abi": [
    {
      "inputs": [],
      "stateMutability": "nonpayable",
      "type": "constructor"
    },
    {
      "inputs": [],
      "name": "_initialized",
      "outputs": [
        {
          "internalType": "bool",
          "name": "",
          "type": "bool"
        }
      ],
      "stateMutability": "view",
      "type": "function",
      "constant": true
    },
    {
      "inputs": [],
      "name": "owner",
      "outputs": [
        {
          "internalType": "address",
          "name": "",
          "type": "address"
        }
      ],
      "stateMutability": "view",
      "type": "function",
      "constant": true
    },
    {
      "inputs": [],
      "name": "getNumberOfDogs",
      "outputs": [
        {
          "internalType": "uint256",
          "name": "",
          "type": "uint256"
        }
      ],
      "stateMutability": "view",
      "type": "function",
      "constant": true
    },
    {
      "inputs": [
        {
          "internalType": "uint256",
          "name": "_dogs",
          "type": "uint256"
        }
      ],
      "name": "setNumberOfDogs",
      "outputs": [],
      "stateMutability": "nonpayable",
      "type": "function"
    }
  ],
  "bytecode": "0x608060405234801561001057600080fd5b5033600560006101000a81548173ffffffffffffffffffffffffffffffffffffffff021916908373ffffffffffffffffffffffffffffffffffffffff1602179055506102f8806100616000396000f3fe608060405234801561001057600080fd5b506004361061004c5760003560e01c806314861b22146100515780631680a5ed1461006d5780633072cf601461008b5780638da5cb5b146100a9575b600080fd5b61006b6004803603810190610066919061015c565b6100c7565b005b6100756100eb565b604051610082919061023d565b60405180910390f35b61009361010e565b6040516100a09190610222565b60405180910390f35b6100b1610121565b6040516100be9190610207565b60405180910390f35b8060006040516100d6906101f2565b90815260200160405180910390208190555050565b6000806040516100fa906101f2565b908152602001604051809103902054905090565b600560149054906101000a900460ff1681565b600560009054906101000a900473ffffffffffffffffffffffffffffffffffffffff1681565b600081359050610156816102ab565b92915050565b60006020828403121561016e57600080fd5b600061017c84828501610147565b91505092915050565b61018e81610263565b82525050565b61019d81610275565b82525050565b60006101b0600483610258565b91507f446f6773000000000000000000000000000000000000000000000000000000006000830152600482019050919050565b6101ec816102a1565b82525050565b60006101fd826101a3565b9150819050919050565b600060208201905061021c6000830184610185565b92915050565b60006020820190506102376000830184610194565b92915050565b600060208201905061025260008301846101e3565b92915050565b600081905092915050565b600061026e82610281565b9050919050565b60008115159050919050565b600073ffffffffffffffffffffffffffffffffffffffff82169050919050565b6000819050919050565b6102b4816102a1565b81146102bf57600080fd5b5056fea26469706673582212202202cd9267a45b78d2af651dfd0a3e17fa2452a4b608716cf56111c367a6e60e64736f6c63430008000033",
  "immutableReferences": {},
  "source": "// SPDX-License-Identifier: MIT\r\npragma solidity >=0.4.22 <0.9.0;\r\nimport './Storage.sol';\r\n\r\ncontract Dogs is Storage{\r\n   \r\n   modifier onlyOwner(){\r\n       require(owner == msg.sender,\"Accessible to owners only\");\r\n       _;\r\n   }\r\n   constructor(){\r\n       owner = msg.sender;\r\n   }\r\n   function getNumberOfDogs() public view returns(uint){\r\n       return _uintStorage[\"Dogs\"];\r\n   }\r\n\r\n   function setNumberOfDogs(uint _dogs) public virtual{\r\n       _uintStorage[\"Dogs\"] = _dogs;\r\n   }\r\n}",
  "sourcePath": "D:/BlockChain/Ethereum-201/ProxyContract/contracts/Dogs.sol",
  "compiler": {
    "name": "solc",
    "version": "0.8.0+commit.c7dfd78e.Emscripten.clang"
  },
  "schemaVersion": "3.4.1",
  "updatedAt": "2021-07-20T17:56:12.558Z",
  "networkType": "ethereum",
  "devdoc": {
    "kind": "dev",
    "methods": {},
    "version": 1
  },
  "userdoc": {
    "kind": "user",
    "methods": {},
    "version": 1
  }
}