{
  "contractName": "ProxyDogs",
  "abi": [
    {
      "inputs": [
        {
          "internalType": "address",
          "name": "_address",
          "type": "address"
        }
      ],
      "stateMutability": "nonpayable",
      "type": "constructor"
    },
    {
      "stateMutability": "payable",
      "type": "fallback",
      "payable": true
    },
    {
      "inputs": [],
      "name": "_initialized",
      "outputs": [
        {
          "internalType": "bool",
          "name": "",
          "type": "bool"
        }
      ],
      "stateMutability": "view",
      "type": "function",
      "constant": true
    },
    {
      "inputs": [],
      "name": "owner",
      "outputs": [
        {
          "internalType": "address",
          "name": "",
          "type": "address"
        }
      ],
      "stateMutability": "view",
      "type": "function",
      "constant": true
    },
    {
      "stateMutability": "payable",
      "type": "receive",
      "payable": true
    },
    {
      "inputs": [
        {
          "internalType": "address",
          "name": "_address",
          "type": "address"
        }
      ],
      "name": "upgrade",
      "outputs": [],
      "stateMutability": "nonpayable",
      "type": "function"
    }
  ],
  "bytecode": "0x608060405234801561001057600080fd5b506040516105003803806105008339818101604052810190610032919061008e565b80600660006101000a81548173ffffffffffffffffffffffffffffffffffffffff021916908373ffffffffffffffffffffffffffffffffffffffff16021790555050610100565b600081519050610088816100e9565b92915050565b6000602082840312156100a057600080fd5b60006100ae84828501610079565b91505092915050565b60006100c2826100c9565b9050919050565b600073ffffffffffffffffffffffffffffffffffffffff82169050919050565b6100f2816100b7565b81146100fd57600080fd5b50565b6103f18061010f6000396000f3fe6080604052600436106100385760003560e01c80630900f010146101675780633072cf60146101905780638da5cb5b146101bb5761003f565b3661003f57005b6000600660009054906101000a900473ffffffffffffffffffffffffffffffffffffffff169050600073ffffffffffffffffffffffffffffffffffffffff16600660009054906101000a900473ffffffffffffffffffffffffffffffffffffffff1673ffffffffffffffffffffffffffffffffffffffff1614156100f8576040517f08c379a00000000000000000000000000000000000000000000000000000000081526004016100ef90610335565b60405180910390fd5b600080368080601f016020809104026020016040519081016040528093929190818152602001838380828437600081840152601f19601f820116905080830192505050505050509050600080825160208401855af43d604051816000823e8260008114610163578282f35b8282fd5b34801561017357600080fd5b5061018e60048036038101906101899190610278565b6101e6565b005b34801561019c57600080fd5b506101a561022a565b6040516101b2919061031a565b60405180910390f35b3480156101c757600080fd5b506101d061023d565b6040516101dd91906102ff565b60405180910390f35b80600660006101000a81548173ffffffffffffffffffffffffffffffffffffffff021916908373ffffffffffffffffffffffffffffffffffffffff16021790555050565b600560149054906101000a900460ff1681565b600560009054906101000a900473ffffffffffffffffffffffffffffffffffffffff1681565b600081359050610272816103a4565b92915050565b60006020828403121561028a57600080fd5b600061029884828501610263565b91505092915050565b6102aa81610366565b82525050565b6102b981610378565b82525050565b60006102cc601883610355565b91507f436f6e74726163742061646472657373206973207a65726f00000000000000006000830152602082019050919050565b600060208201905061031460008301846102a1565b92915050565b600060208201905061032f60008301846102b0565b92915050565b6000602082019050818103600083015261034e816102bf565b9050919050565b600082825260208201905092915050565b600061037182610384565b9050919050565b60008115159050919050565b600073ffffffffffffffffffffffffffffffffffffffff82169050919050565b6103ad81610366565b81146103b857600080fd5b5056fea2646970667358221220bd8602d5b2a6260b4f402e748b0cbbf1b8af6bea52387ae056fcaf0ac4fdc58964736f6c63430008000033",
  "immutableReferences": {},
  "source": "// SPDX-License-Identifier: MIT\r\npragma solidity >=0.4.22 <0.9.0;\r\nimport './Storage.sol';\r\n\r\ncontract ProxyDogs is Storage{\r\n  \r\n  address currentAddress;\r\n\r\n  constructor(address _address){\r\n     currentAddress = _address;\r\n  }\r\n\r\n  function upgrade(address _address) public {\r\n      currentAddress = _address;\r\n  }\r\n  \r\n  receive() payable external{}\r\n\r\n  fallback() payable external{\r\n    address implementation = currentAddress;\r\n    require(currentAddress != address(0),\"Contract address is zero\");\r\n    bytes memory data = msg.data;\r\n    assembly{\r\n        let result := delegatecall(gas(),implementation,add(data,0x20),mload(data),0,0)\r\n        let size := returndatasize()\r\n        let ptr := mload(0x40)\r\n        returndatacopy(ptr,0,size)\r\n        switch result\r\n        case 0 {revert(ptr,size)}\r\n        default {return(ptr,size)}\r\n    }\r\n  }\r\n}",
  "sourcePath": "D:/BlockChain/Ethereum-201/ProxyContract/contracts/Proxy.sol",
  "compiler": {
    "name": "solc",
    "version": "0.8.0+commit.c7dfd78e.Emscripten.clang"
  },
  "schemaVersion": "3.4.1",
  "updatedAt": "2021-07-20T17:56:12.592Z",
  "networkType": "ethereum",
  "devdoc": {
    "kind": "dev",
    "methods": {},
    "version": 1
  },
  "userdoc": {
    "kind": "user",
    "methods": {},
    "version": 1
  }
}